:1000000012C0189518951895189518951895189563
:100010001895189518951895189518951895189578
:100020001895189518958FE58DBFC0E4E8E34E2E1E
:1000300084E08EBFD4E0F4E05F2EEEEFF3E0A0E6C4
:10004000B0E0A89584B7082E877F84BF88E1992700
:1000500081BD91BD88278D933197E9F76624B89AC1
:10006000C09888B391E0892788BBE1E0F0E003D035
:10007000F8CFF894FFCF88EE93E00CD03197D9F702
:1000800008953197F1F70895689462F80895E89417
:1000900062F80895EF93FF93EE27E82BE92B31F0F8
:1000A000E0EDF7E03197F1F70197D1F7FF91EF918C
:0200B0000895B1
:00000001FF
